:020000040000FA
:020000000628D0
:040002000034003492
:0800080000000900210068302E
:1000100099002D2040202000F4017408F5005A209A
:1000200076087920F60077087920F700780879209B
:10003000F8008B2077088B2076088B20F1018C1A32
:100040000C280C1E1E28F10B1F28F40AF1010C1AB3
:100050002628F10B27280D280D2822008C018D0160
:100060008E01230000308C0010308D0004308E0093
:100070002100FB308C003F308D0015308E000800D1
:100080002400940130309500030120000E13240059
:100090009100141C4928110803019100141C4E28DA
:1000A000110803019100141C5328110803012000BA
:1000B0000E170800F801F701F601F535F80DF535D2
:1000C000F80DF535F80D0530F7007808033E89196D
:1000D000F8007808303E891BF800F535F80DF60D6C
:1000E000F70B65287808F700F70E0F30F805F705CD
:1000F00008000F390B00FC346034DA34F234663413
:10010000B634BE34E034FE34F634EE343E349C343F
:100110007A349E348E3420000E1324009100141C77
:0C0120008F281108030120000E170800B2
:020000040001F9
:02000E00E40903
:02001000FF3FB0
:00000001FF
