:020000040000FA
:020000000628D0
:040002000034003492
:0800080000000900210068302E
:100010009900452023009E161E151D169C011930BF
:100020009B009D1787011130860023002300811E4D
:1000300017281908F0003F307002031D16284230BF
:100040003F2054303F2031303F203A303F202000C5
:1000500030300C1A31303F205F303F2042303F209B
:1000600054303F2032303F203A303F2020003030A3
:100070008C1A31303F2000009E1C3C28162823009B
:100080000000011E41289A00080022008C018D0109
:100090008E01230000308C0010308D0004308E0063
:1000A0002100FB308C003F308D0015308E000800A1
:020000040001F9
:02000E00E40903
:02001000FF3FB0
:00000001FF
