:020000040000FA
:020000001928BD
:040002000034003492
:080008002700131E102813123B
:10001000210028309D009F011D1420008E1609002C
:100020009312210018309D009F011D1420008E1294
:1000300009002100683099005A206D20270012160F
:10004000911693018B158B172000210018309D000D
:1000500070309E009F011D1420000C1E39288C1E3C
:1000600039280A30B8200A30B8209E30B8205020F5
:100070002D2821009D149D183B281C08F300872083
:100080007408A620F4007508A620F5007608A620BE
:10009000F600B8207508B8207408B82050202D2824
:1000A0006430F200F930F1000000F10B5428F20B3B
:1000B0005228080022008C018D018E01230000309F
:1000C0008C0010308D0004308E002100FB308C003D
:1000D0003F308D0015308E00080024009401303030
:1000E0009500030120000E1324009100141C7628B3
:1000F000110803019100141C7B28110803019100D1
:10010000141C80281108030120000E170800F601B6
:10011000F501F401F335F60DF335F60DF335F60D73
:100120000530F5007608033E8919F6007608303E62
:10013000891BF600F335F60DF40DF50B92287608C1
:10014000F500F50E0F30F605F50508000F390B0028
:10015000FC346034DA34F2346634B634BE34E0341D
:10016000FE34F634EE343E349C347A349E348E348D
:1001700020000E1324009100141CBC281108030158
:0601800020000E1708002C
:020000040001F9
:02000E00E40903
:02001000FF3FB0
:00000001FF
