:020000040000FA
:020000000628D0
:040002000034003492
:0800080000000900210068302E
:1000100099003120200020009C019A01FF309B00B4
:100020001C152C00920191011317931706308500BF
:1000300012308400200023009E161E151D169C0100
:1000400019309B009D178701113086002300230083
:10005000811E28281908F000200003017008800084
:10006000272822008C018D018E01230000308C0096
:1000700010308D0004308E002100FB308C003F30AA
:080080008D0015308E00080010
:020000040001F9
:02000E00E40903
:02001000FF3FB0
:00000001FF
