:020000040000FA
:020000000628D0
:040002000034003492
:0800080000000900210068302E
:1000100099006C20200020009C011C109C109C1159
:100020001C129C121C139A01FF309B001C152C0003
:100030009B019A011C179C17063085001B30840019
:100040002000F101F10A03017F3E800020000C1A1C
:100050002C288C1A322826280430710203192628ED
:10006000F10A38280130710203192628F1033828D3
:1000700001307102031D42289C011C109C14943015
:100080009B001C1502307102031D4C289C011C10A2
:100090009C1448309B001C1503307102031D562828
:1000A0009C011C109C1432309B001C150430710202
:1000B000031D60289C011C109C1425309B001C15FE
:1000C000622026286430F300F930F2000000F20BC1
:1000D0006628F30B6428080022008C018D018E0134
:1000E000230000308C0010308D0004308E00210081
:0E00F000FB308C003F308D0015308E00080074
:020000040001F9
:02000E00E40903
:02001000FF3FB0
:00000001FF
