:020000040000FA
:020000000628D0
:040002000034003492
:0800080000000900210068302E
:1000100099006620200020009C019A01FF309B007F
:100020001C152C009B019A011C179C17063085009B
:100030001B3084002000F101F10A0301003E800022
:100040000C1E3E28200001307102031D2A280301E6
:100050007F3E800002307102031D31280301BE3E45
:10006000800003307102031D38280301FF3E800029
:1000700004307102031DF10A5C2020288C1E202808
:10008000200004307102031D48280301BE3E800099
:1000900003307102031D4F2803017F3E80000230B0
:1000A0007102031D56280301003E800001307102D9
:1000B000031DF1035C202028F430F300F930F20036
:1000C0000000F20B6028F30B5E28080022008C0170
:1000D0008D018E01230000308C0010308D00043023
:1000E0008E002100FB308C003F308D0015308E00DB
:0200F000080006
:020000040001F9
:02000E00E40903
:02001000FF3FB0
:00000001FF
