:020000040000FA
:02000000432893
:040002000034003492
:080008002700131E0928131242
:100010000B289312122820000430710203190900E2
:10002000F10A192820000130710203190900F103B7
:10003000192820009A019C01200001307102031D43
:1000400025281C109C14FF3040282000023071022B
:10005000031D2E281C109C14C330402820000330A0
:100060007102031D37281C109C1494304028200076
:1000700004307102031D40281C149C10FC304028E1
:100080009B001C15090021006830990067202000A2
:1000900027001116911693018B158B1720009C01D8
:1000A0001C109C149A01FF309B001C152C009B0116
:1000B0009A011C179C17063085001B308400200015
:1000C00003017F3E8000F101F10A20006528220033
:1000D0008C018D018E01230000308C0010308D00CA
:1000E00004308E002100FB308C003F308D00153035
:0400F0008E00080076
:020000040001F9
:02000E00E40903
:02001000FF3FB0
:00000001FF
