:020000040000FA
:020000000628D0
:040002000034003492
:0800080000000900210068302E
:1000100099006C20200020009C011C109C149C1155
:100020001C129C121C139A01FF309B001C152C0003
:100030009B019A011C179C17063085001B30840019
:100040002000F101F10A0301003E80000C1E44284B
:10005000200001307102031D302803017F3E800023
:1000600002307102031D37280301BE3E80000330B9
:100070007102031D3E280301FF3E8000043071021F
:10008000031DF10A622026288C1E26282000043039
:100090007102031D4E280301BE3E80000330710231
:1000A000031D552803017F3E800002307102031DAD
:1000B0005C280301003E800001307102031DF10342
:1000C00062202628F430F300F930F2000000F20B31
:1000D0006628F30B6428080022008C018D018E0134
:1000E000230000308C0010308D0004308E00210081
:0E00F000FB308C003F308D0015308E00080074
:020000040001F9
:02000E00E40903
:02001000FF3FB0
:00000001FF
